{
    "contractName": "RabitaMessaging",
    "abi": [
        {
            "inputs": [
                {
                    "internalType": "address",
                    "name": "_kolRegistry",
                    "type": "address"
                },
                {
                    "internalType": "address",
                    "name": "_devAddress",
                    "type": "address"
                }
            ],
            "stateMutability": "nonpayable",
            "type": "constructor"
        },
        {
            "inputs": [],
            "name": "DeadlineNotReached",
            "type": "error"
        },
        {
            "inputs": [],
            "name": "FeeTransferFailed",
            "type": "error"
        },
        {
            "inputs": [],
            "name": "IncorrectFeeAmount",
            "type": "error"
        },
        {
            "inputs": [],
            "name": "InvalidDevAddressAddress",
            "type": "error"
        },
        {
            "inputs": [],
            "name": "InvalidKOLRegistryAddress",
            "type": "error"
        },
        {
            "inputs": [],
            "name": "InvalidPayoutAmount",
            "type": "error"
        },
        {
            "inputs": [],
            "name": "InvalidRefundPercentage",
            "type": "error"
        },
        {
            "inputs": [],
            "name": "MessageNotPending",
            "type": "error"
        },
        {
            "inputs": [],
            "name": "NoFeesAvailable",
            "type": "error"
        },
        {
            "inputs": [],
            "name": "NotAuthorizedKOL",
            "type": "error"
        },
        {
            "inputs": [],
            "name": "NotVerifiedKOL",
            "type": "error"
        },
        {
            "inputs": [
                {
                    "internalType": "address",
                    "name": "owner",
                    "type": "address"
                }
            ],
            "name": "OwnableInvalidOwner",
            "type": "error"
        },
        {
            "inputs": [
                {
                    "internalType": "address",
                    "name": "account",
                    "type": "address"
                }
            ],
            "name": "OwnableUnauthorizedAccount",
            "type": "error"
        },
        {
            "inputs": [],
            "name": "PayoutToKOLFailed",
            "type": "error"
        },
        {
            "inputs": [],
            "name": "ReentrancyGuardReentrantCall",
            "type": "error"
        },
        {
            "inputs": [],
            "name": "RefundTransferFailed",
            "type": "error"
        },
        {
            "anonymous": false,
            "inputs": [
                {
                    "indexed": true,
                    "internalType": "address",
                    "name": "sender",
                    "type": "address"
                },
                {
                    "indexed": true,
                    "internalType": "address",
                    "name": "kol",
                    "type": "address"
                }
            ],
            "name": "ActivePairAdded",
            "type": "event"
        },
        {
            "anonymous": false,
            "inputs": [
                {
                    "indexed": true,
                    "internalType": "address",
                    "name": "sender",
                    "type": "address"
                },
                {
                    "indexed": true,
                    "internalType": "address",
                    "name": "kol",
                    "type": "address"
                }
            ],
            "name": "ActivePairRemoved",
            "type": "event"
        },
        {
            "anonymous": false,
            "inputs": [
                {
                    "indexed": false,
                    "internalType": "uint256",
                    "name": "amount",
                    "type": "uint256"
                },
                {
                    "indexed": false,
                    "internalType": "address",
                    "name": "devAddress",
                    "type": "address"
                }
            ],
            "name": "FeesTransferred",
            "type": "event"
        },
        {
            "anonymous": false,
            "inputs": [
                {
                    "indexed": true,
                    "internalType": "address",
                    "name": "kol",
                    "type": "address"
                },
                {
                    "indexed": true,
                    "internalType": "address",
                    "name": "sender",
                    "type": "address"
                },
                {
                    "indexed": false,
                    "internalType": "uint256",
                    "name": "amount",
                    "type": "uint256"
                }
            ],
            "name": "KOLPaid",
            "type": "event"
        },
        {
            "anonymous": false,
            "inputs": [
                {
                    "indexed": true,
                    "internalType": "address",
                    "name": "sender",
                    "type": "address"
                },
                {
                    "indexed": true,
                    "internalType": "address",
                    "name": "receiver",
                    "type": "address"
                },
                {
                    "indexed": false,
                    "internalType": "string",
                    "name": "content",
                    "type": "string"
                }
            ],
            "name": "MessageSent",
            "type": "event"
        },
        {
            "anonymous": false,
            "inputs": [
                {
                    "indexed": true,
                    "internalType": "uint256",
                    "name": "messageId",
                    "type": "uint256"
                },
                {
                    "indexed": false,
                    "internalType": "uint256",
                    "name": "fee",
                    "type": "uint256"
                },
                {
                    "indexed": false,
                    "internalType": "uint256",
                    "name": "deadline",
                    "type": "uint256"
                },
                {
                    "indexed": false,
                    "internalType": "string",
                    "name": "content",
                    "type": "string"
                }
            ],
            "name": "MessageSentToKOL",
            "type": "event"
        },
        {
            "anonymous": false,
            "inputs": [
                {
                    "indexed": true,
                    "internalType": "uint256",
                    "name": "messageId",
                    "type": "uint256"
                }
            ],
            "name": "MessageTimeoutTriggered",
            "type": "event"
        },
        {
            "anonymous": false,
            "inputs": [
                {
                    "indexed": true,
                    "internalType": "address",
                    "name": "previousOwner",
                    "type": "address"
                },
                {
                    "indexed": true,
                    "internalType": "address",
                    "name": "newOwner",
                    "type": "address"
                }
            ],
            "name": "OwnershipTransferred",
            "type": "event"
        },
        {
            "anonymous": false,
            "inputs": [
                {
                    "indexed": true,
                    "internalType": "address",
                    "name": "receiver",
                    "type": "address"
                },
                {
                    "indexed": false,
                    "internalType": "uint256",
                    "name": "amount",
                    "type": "uint256"
                }
            ],
            "name": "RefundSent",
            "type": "event"
        },
        {
            "anonymous": false,
            "inputs": [
                {
                    "indexed": true,
                    "internalType": "address",
                    "name": "sender",
                    "type": "address"
                },
                {
                    "indexed": true,
                    "internalType": "uint256",
                    "name": "messageId",
                    "type": "uint256"
                },
                {
                    "indexed": false,
                    "internalType": "bytes",
                    "name": "pgpPublicKey",
                    "type": "bytes"
                },
                {
                    "indexed": false,
                    "internalType": "uint256",
                    "name": "pgpNonce",
                    "type": "uint256"
                }
            ],
            "name": "SenderPGPUpdated",
            "type": "event"
        },
        {
            "anonymous": false,
            "inputs": [
                {
                    "indexed": false,
                    "internalType": "uint256",
                    "name": "oldPercent",
                    "type": "uint256"
                },
                {
                    "indexed": false,
                    "internalType": "uint256",
                    "name": "newPercent",
                    "type": "uint256"
                }
            ],
            "name": "TimeoutRefundPercentUpdated",
            "type": "event"
        },
        {
            "inputs": [],
            "name": "MAX_BATCH_SIZE",
            "outputs": [
                {
                    "internalType": "uint256",
                    "name": "",
                    "type": "uint256"
                }
            ],
            "stateMutability": "view",
            "type": "function"
        },
        {
            "inputs": [],
            "name": "MESSAGE_EXPIRATION",
            "outputs": [
                {
                    "internalType": "uint256",
                    "name": "",
                    "type": "uint256"
                }
            ],
            "stateMutability": "view",
            "type": "function"
        },
        {
            "inputs": [],
            "name": "PLATFORM_FEE_PERCENT",
            "outputs": [
                {
                    "internalType": "uint256",
                    "name": "",
                    "type": "uint256"
                }
            ],
            "stateMutability": "view",
            "type": "function"
        },
        {
            "inputs": [
                {
                    "internalType": "uint256",
                    "name": "",
                    "type": "uint256"
                }
            ],
            "name": "activeKols",
            "outputs": [
                {
                    "internalType": "address",
                    "name": "",
                    "type": "address"
                }
            ],
            "stateMutability": "view",
            "type": "function"
        },
        {
            "inputs": [],
            "name": "activePairCount",
            "outputs": [
                {
                    "internalType": "uint256",
                    "name": "",
                    "type": "uint256"
                }
            ],
            "stateMutability": "view",
            "type": "function"
        },
        {
            "inputs": [
                {
                    "internalType": "address",
                    "name": "",
                    "type": "address"
                },
                {
                    "internalType": "address",
                    "name": "",
                    "type": "address"
                }
            ],
            "name": "activePairIndex",
            "outputs": [
                {
                    "internalType": "uint256",
                    "name": "",
                    "type": "uint256"
                }
            ],
            "stateMutability": "view",
            "type": "function"
        },
        {
            "inputs": [
                {
                    "internalType": "uint256",
                    "name": "",
                    "type": "uint256"
                }
            ],
            "name": "activeSenders",
            "outputs": [
                {
                    "internalType": "address",
                    "name": "",
                    "type": "address"
                }
            ],
            "stateMutability": "view",
            "type": "function"
        },
        {
            "inputs": [
                {
                    "internalType": "bytes",
                    "name": "checkData",
                    "type": "bytes"
                }
            ],
            "name": "checkUpkeep",
            "outputs": [
                {
                    "internalType": "bool",
                    "name": "upkeepNeeded",
                    "type": "bool"
                },
                {
                    "internalType": "bytes",
                    "name": "performData",
                    "type": "bytes"
                }
            ],
            "stateMutability": "view",
            "type": "function"
        },
        {
            "inputs": [],
            "name": "devAddress",
            "outputs": [
                {
                    "internalType": "address",
                    "name": "",
                    "type": "address"
                }
            ],
            "stateMutability": "view",
            "type": "function"
        },
        {
            "inputs": [],
            "name": "getActivePairCount",
            "outputs": [
                {
                    "internalType": "uint256",
                    "name": "",
                    "type": "uint256"
                }
            ],
            "stateMutability": "view",
            "type": "function"
        },
        {
            "inputs": [
                {
                    "internalType": "address",
                    "name": "",
                    "type": "address"
                },
                {
                    "internalType": "address",
                    "name": "",
                    "type": "address"
                }
            ],
            "name": "isActivePair",
            "outputs": [
                {
                    "internalType": "bool",
                    "name": "",
                    "type": "bool"
                }
            ],
            "stateMutability": "view",
            "type": "function"
        },
        {
            "inputs": [
                {
                    "internalType": "address",
                    "name": "",
                    "type": "address"
                }
            ],
            "name": "kolEarnedFees",
            "outputs": [
                {
                    "internalType": "uint256",
                    "name": "",
                    "type": "uint256"
                }
            ],
            "stateMutability": "view",
            "type": "function"
        },
        {
            "inputs": [],
            "name": "kolRegistry",
            "outputs": [
                {
                    "internalType": "contract IKOLRegistry",
                    "name": "",
                    "type": "address"
                }
            ],
            "stateMutability": "view",
            "type": "function"
        },
        {
            "inputs": [
                {
                    "internalType": "address",
                    "name": "",
                    "type": "address"
                },
                {
                    "internalType": "address",
                    "name": "",
                    "type": "address"
                }
            ],
            "name": "kolToUserLastReply",
            "outputs": [
                {
                    "internalType": "uint256",
                    "name": "",
                    "type": "uint256"
                }
            ],
            "stateMutability": "view",
            "type": "function"
        },
        {
            "inputs": [],
            "name": "messageCount",
            "outputs": [
                {
                    "internalType": "uint256",
                    "name": "",
                    "type": "uint256"
                }
            ],
            "stateMutability": "view",
            "type": "function"
        },
        {
            "inputs": [
                {
                    "internalType": "uint256",
                    "name": "",
                    "type": "uint256"
                }
            ],
            "name": "messageMetadata",
            "outputs": [
                {
                    "internalType": "bytes",
                    "name": "senderPGPPublicKey",
                    "type": "bytes"
                },
                {
                    "internalType": "uint256",
                    "name": "senderPGPNonce",
                    "type": "uint256"
                },
                {
                    "internalType": "uint256",
                    "name": "version",
                    "type": "uint256"
                }
            ],
            "stateMutability": "view",
            "type": "function"
        },
        {
            "inputs": [
                {
                    "internalType": "uint256",
                    "name": "",
                    "type": "uint256"
                }
            ],
            "name": "messages",
            "outputs": [
                {
                    "internalType": "uint256",
                    "name": "id",
                    "type": "uint256"
                },
                {
                    "internalType": "address",
                    "name": "sender",
                    "type": "address"
                },
                {
                    "internalType": "address",
                    "name": "kol",
                    "type": "address"
                },
                {
                    "internalType": "uint256",
                    "name": "fee",
                    "type": "uint256"
                },
                {
                    "internalType": "uint256",
                    "name": "timestamp",
                    "type": "uint256"
                },
                {
                    "internalType": "uint256",
                    "name": "deadline",
                    "type": "uint256"
                },
                {
                    "internalType": "string",
                    "name": "content",
                    "type": "string"
                },
                {
                    "internalType": "enum RabitaMessaging.MessageStatus",
                    "name": "status",
                    "type": "uint8"
                }
            ],
            "stateMutability": "view",
            "type": "function"
        },
        {
            "inputs": [],
            "name": "owner",
            "outputs": [
                {
                    "internalType": "address",
                    "name": "",
                    "type": "address"
                }
            ],
            "stateMutability": "view",
            "type": "function"
        },
        {
            "inputs": [
                {
                    "internalType": "bytes",
                    "name": "performData",
                    "type": "bytes"
                }
            ],
            "name": "performUpkeep",
            "outputs": [],
            "stateMutability": "nonpayable",
            "type": "function"
        },
        {
            "inputs": [],
            "name": "renounceOwnership",
            "outputs": [],
            "stateMutability": "nonpayable",
            "type": "function"
        },
        {
            "inputs": [
                {
                    "internalType": "address",
                    "name": "_user",
                    "type": "address"
                },
                {
                    "internalType": "string",
                    "name": "content",
                    "type": "string"
                }
            ],
            "name": "respondToMessage",
            "outputs": [],
            "stateMutability": "nonpayable",
            "type": "function"
        },
        {
            "inputs": [
                {
                    "internalType": "address",
                    "name": "_kol",
                    "type": "address"
                },
                {
                    "internalType": "bytes",
                    "name": "_senderPGPPublicKey",
                    "type": "bytes"
                },
                {
                    "internalType": "uint256",
                    "name": "_senderPGPNonce",
                    "type": "uint256"
                },
                {
                    "internalType": "string",
                    "name": "content",
                    "type": "string"
                }
            ],
            "name": "sendEncryptedMessage",
            "outputs": [],
            "stateMutability": "payable",
            "type": "function"
        },
        {
            "inputs": [
                {
                    "internalType": "uint256",
                    "name": "_percent",
                    "type": "uint256"
                }
            ],
            "name": "setTimeoutRefundPercent",
            "outputs": [],
            "stateMutability": "nonpayable",
            "type": "function"
        },
        {
            "inputs": [],
            "name": "timeoutRefundPercent",
            "outputs": [
                {
                    "internalType": "uint256",
                    "name": "",
                    "type": "uint256"
                }
            ],
            "stateMutability": "view",
            "type": "function"
        },
        {
            "inputs": [
                {
                    "internalType": "address",
                    "name": "newOwner",
                    "type": "address"
                }
            ],
            "name": "transferOwnership",
            "outputs": [],
            "stateMutability": "nonpayable",
            "type": "function"
        },
        {
            "inputs": [
                {
                    "internalType": "address",
                    "name": "sender",
                    "type": "address"
                },
                {
                    "internalType": "address",
                    "name": "kol",
                    "type": "address"
                }
            ],
            "name": "triggerTimeout",
            "outputs": [],
            "stateMutability": "nonpayable",
            "type": "function"
        },
        {
            "inputs": [
                {
                    "internalType": "address",
                    "name": "",
                    "type": "address"
                },
                {
                    "internalType": "address",
                    "name": "",
                    "type": "address"
                }
            ],
            "name": "userToKolFeesCollected",
            "outputs": [
                {
                    "internalType": "uint256",
                    "name": "",
                    "type": "uint256"
                }
            ],
            "stateMutability": "view",
            "type": "function"
        },
        {
            "inputs": [
                {
                    "internalType": "address",
                    "name": "",
                    "type": "address"
                },
                {
                    "internalType": "address",
                    "name": "",
                    "type": "address"
                }
            ],
            "name": "userToKolLatestMessage",
            "outputs": [
                {
                    "internalType": "uint256",
                    "name": "",
                    "type": "uint256"
                }
            ],
            "stateMutability": "view",
            "type": "function"
        },
        {
            "stateMutability": "payable",
            "type": "receive"
        }
    ],
    "bytecode": "60803461012657601f61225438819003918201601f19168301916001600160401b0383118484101761012a57808492604094855283398101031261012657610052602061004b8361013e565b920161013e565b60015f5533156101135760018054336001600160a01b0319821681179092556040519391906001600160a01b03167f8be0079c531659141344cd1fd0a4f28419497f9722a3daafe3b4186f6b6457e05f80a3602d6010556001600160a01b0316908115610104576001600160a01b03169081156100f55760018060a01b0319600a541617600a5560018060a01b0319600f541617600f5561210190816101538239f35b63adb2fcbd60e01b5f5260045ffd5b6314c2d5c160e21b5f5260045ffd5b631e4fbdf760e01b5f525f60045260245ffd5b5f80fd5b634e487b7160e01b5f52604160045260245ffd5b51906001600160a01b03821682036101265756fe6080604052600436101561001a575b3615610018575f80fd5b005b5f3560e01c806301c17c49146117d55780630640469d146117ac57806306fb3f491461175c57806307bcddd2146117055780630d80fefd1461165957806316e19601146116095780631fc6ac8614610efc5780632fd16b8a1461021e578063349b457a14610eac5780633ad10ef614610e845780633dbcc8d114610e675780634585e33b14610b53578063560d52d414610b38578063589cbafc14610b105780636e04ff0d1461085f578063715018a61461080457806382ab0658146107cc5780638da5cb5b146107a4578063a54594a4146105a3578063b32d3ea7146104c2578063c1dfa08014610456578063c78c7a5414610439578063cfdbf2541461041e578063d225977114610258578063d8e807751461023b578063f0149efd1461021e578063f0a696f7146101dc5763f2fde38b0361000e57346101d85760203660031901126101d85761016b611825565b610173611edf565b6001600160a01b031680156101c557600180546001600160a01b0319811683179091556001600160a01b03167f8be0079c531659141344cd1fd0a4f28419497f9722a3daafe3b4186f6b6457e05f80a3005b631e4fbdf760e01b5f525f60045260245ffd5b5f80fd5b346101d85760203660031901126101d857600435600b548110156101d85761020560209161187d565b905460405160039290921b1c6001600160a01b03168152f35b346101d8575f3660031901126101d8576020600d54604051908152f35b346101d8575f3660031901126101d857602060405162093a808152f35b346101d85760403660031901126101d857610271611825565b6024356001600160401b0381116101d857610290903690600401611a4f565b90610299611c92565b6001600160a01b039081165f81815260066020908152604080832033808552908352818420548452600292839052922090810180549194919091169182900361040f578261035a927fe2cf7446a11cbcd14cd99ea3a1bb77fb7653a64f4064d660140b5100d001e13c945f52600560205260405f209060018060a01b03165f5260205260405f20548015159081610363575b50505060018060a01b03905416926001808060a01b0391015416936040519182916020835260208301906119da565b0390a360015f55005b6007878101805460ff1916600190811790915585546001600160a01b039081165f90815260209384526040808220938c018054841683529390945292909220429055805486549194926103b99281169116611f06565b6103eb575b50505f90815260056020908152604080832084546001600160a01b0316845290915281205585808061032b565b83549154610407926001600160a01b0391821692911690611cdf565b5086806103be565b634aa42f6d60e01b5f5260045ffd5b346101d8575f3660031901126101d857602060405160648152f35b346101d8575f3660031901126101d8576020601054604051908152f35b346101d85760203660031901126101d857600435610472611edf565b606481116104b35760407f0d8d050e7329f754c376b20ea7fd8326eff74ad26294b45678663e14822d808891601054908060105582519182526020820152a1005b6332d08c2360e11b5f5260045ffd5b346101d85760203660031901126101d8576004355f52600360205260405f206040515f9180546104f1816118aa565b808452906001811690811561057f5750600114610546575b5061051982610537940383611919565b600260018201549101546040519384936060855260608501906119da565b91602084015260408301520390f35b9250805f5260205f205f905b848210610569575082016020019250610519610509565b6001816020925483858801015201910190610552565b60ff191660208086019190915291151560051b840190910193506105199050610509565b346101d85760403660031901126101d8576105bc611825565b6105c461183b565b906105cd611c92565b60018060a01b03811690815f52600660205260405f2060018060a01b0384165f5260205260405f20545f52600260205260405f20600781019060ff82541660038110156107905761078157600581015442111561077257835f52600560205260405f2060018060a01b0386165f5260205260405f20541561076357600391600260ff198254161790556106608584611f06565b0154601054806064036064811161074f5760649161068c836106856106929487611b6a565b0485611b5d565b93611b6a565b048181111561073d5750905f915b818161072c575b5050838261071a575b5f8481526006602090815260408083206001600160a01b03949094168084528483528184208490558784526005835281842090845282528220829055919091527ff2649ae73fc4ec92d9983cc1a23a0e30ee412e32fc32451d3818f8f651df33668180a260015f55005b61072392611cdf565b508280836106b0565b61073591611e5e565b5084816106a7565b91908261074991611b5d565b916106a0565b634e487b7160e01b5f52601160045260245ffd5b63188fc9f360e31b5f5260045ffd5b633376277360e11b5f5260045ffd5b6304e7256d60e21b5f5260045ffd5b634e487b7160e01b5f52602160045260245ffd5b346101d8575f3660031901126101d8576001546040516001600160a01b039091168152602090f35b346101d85760203660031901126101d8576001600160a01b036107ed611825565b165f526004602052602060405f2054604051908152f35b346101d8575f3660031901126101d85761081c611edf565b600180546001600160a01b031981169091555f906001600160a01b03167f8be0079c531659141344cd1fd0a4f28419497f9722a3daafe3b4186f6b6457e08280a3005b346101d85761086d36611a6d565b50506040515f90610ca08260606108848385611919565b60648452601f198301803660208701376108a16040519485611919565b60648452366020850137600d54935f5b85811080610b06575b15610a20576108c88161187d565b905460039190911b1c6001600160a01b03166108e382611851565b60018060a01b0391549060031b1c1690805f52600560205260405f2060018060a01b0383165f5260205260405f2054156109df57805f52600660205260405f2060018060a01b0383165f5260205260405f20545f52600260205260405f206109b8604051610950816118e2565b8254815260018301546001600160a01b0390811660208301526002840154166040820152600383015488820152600483015460808201908152600584015460a08301529260e09060ff906007906109a96006820161193a565b60c08601520154169101611b02565b825f52600760205260405f2060018060a01b0383165f5260205260405f20549051116109ef575b50506109ea90611c48565b6108b1565b85929850610a018496610a1295611c02565b52610a0c8287611c02565b52611c48565b916109ea60019690886109df565b508386918483610a50575b505050610a4c604051928392151583526040602084015260408301906119da565b0390f35b9091929350610a5e81611c16565b92610a6882611c16565b925f5b838110610ac15750505050610a9891610aaa610ab892604051948593604060208601526060850190611c56565b838103601f1901604085015290611c56565b03601f198101835282611919565b90828080610a2b565b6001906001600160a01b03610ad68285611c02565b5116610ae28289611c02565b52818060a01b03610af38286611c02565b5116610aff8288611c02565b5201610a6b565b50606484106108ba565b346101d8575f3660031901126101d857600a546040516001600160a01b039091168152602090f35b346101d8575f3660031901126101d857602060405160078152f35b346101d857610b6136611a6d565b8101906040818303126101d85780356001600160401b0381116101d85782610b8a918301611b94565b9160208201356001600160401b0381116101d857610ba89201611b94565b905f5b8151811015610018576001600160a01b03610bc68284611c02565b5116906001600160a01b03610bdb8286611c02565b5116825f52600560205260405f2060018060a01b0382165f5260205260405f205415610e5d57825f52600660205260405f2060018060a01b0382165f5260205260405f20545f52600260205260405f20610c94604051610c3a816118e2565b8254815260018301546001600160a01b039081166020830152600284015416604082015260038301546060820152600483015460808201908152600584015460a08301529260e09060ff906007906109a96006820161193a565b815f52600760205260405f2060018060a01b0385165f5260205260405f2054905111610cc7575b50600191505b01610bab565b610ccf611c92565b825f52600660205260405f2060018060a01b0382165f5260205260405f20545f52600260205260405f20600781019060ff82541660038110156107905761078157600581015442111561077257845f52600560205260405f2060018060a01b0384165f5260205260405f20541561076357600391600260ff19825416179055610d588386611f06565b0154926010549384606403946064861161074f57610d8260649161068c8361068560019a87611b6a565b0481811115610e4c57505f905b8281610e3b575b90508382610e29575b5090505f52600660205260405f20848060a01b0383165f526020525f6040812055805f52600560205260405f20848060a01b0383165f526020525f60408120555f52600660205260405f2090838060a01b03165f5260205260405f20547ff2649ae73fc4ec92d9983cc1a23a0e30ee412e32fc32451d3818f8f651df33665f80a2815f5584610cbb565b610e3292611cdf565b50868183610d9f565b610e4491611e5e565b508782610d96565b9081610e5791611b5d565b90610d8f565b5060019150610cc1565b346101d8575f3660031901126101d8576020600e54604051908152f35b346101d8575f3660031901126101d857600f546040516001600160a01b039091168152602090f35b346101d85760403660031901126101d857610ec5611825565b610ecd61183b565b6001600160a01b039182165f908152600760209081526040808320949093168252928352819020549051908152f35b60803660031901126101d857610f10611825565b6024356001600160401b0381116101d857366023820112156101d857610f40903690602481600401359101611a19565b90604435906064356001600160401b0381116101d857610f64903690600401611a4f565b92610f6d611c92565b600a5460405163fb24c45760e01b81526001600160a01b0384811660048301819052919691925f9188916024918391165afa80156115fe575f965f916114f2575b50156114e3578534036114d457600e546001810180911161074f5780600e5562093a8042019081421161074f57604051610fe7816118e2565b8181523360208083019182526040808401888152606085018d8152426080870190815260a0870189815260c088018b81525f60e08a018181529a8152600297889052959095209751885595516001880180546001600160a01b03199081166001600160a01b039384161790915593519588018054909416951694909417909155516003850155905160048401559051600583015551805160068301916001600160401b0382116113e7576110a58261109f85546118aa565b85611b0e565b602090601f831160011461146d5791806110d99260079695945f926113fb575b50508160011b915f199060031b1c19161790565b90555b01905160038110156107905760ff80198354169116179055604051606081018181106001600160401b038211176113e75760405284815260208101878152604082019060018252600e545f52600360205260405f2092518051906001600160401b0382116113e7576111588261115287546118aa565b87611b0e565b602090601f831160011461140657918061118b9260029695945f926113fb5750508160011b915f199060031b1c19161790565b84555b51600184015551910155335f52600860205260405f20835f5260205260ff60405f205416156112e8575b600e54335f52600660205260405f20845f5260205260405f20556010546064036064811161074f577fa80ffbd655c20a75cc323786ee0df554e3182eb43a8827f07ab00e6d97ef841995606461121161123b938b611b6a565b049061121d828b611b5d565b335f52600560205260405f20875f5260205260405f20553391611cdf565b507f5c9855bf4a6ef89581aa6f23270cb5816111ffa43fbac16f287ec7ea210ce4e1600e549788926040519182526020820152606060408201528061128360608201866119da565b0390a27fe2cf7446a11cbcd14cd99ea3a1bb77fb7653a64f4064d660140b5100d001e13c60405160208152806112be339460208301906119da565b0390a36112d6604051916040835260408301906119da565b9260208201528033930390a360015f55005b600b54600160401b8110156113e75761130c81600161132a9301600b55600b611895565b81546001600160a01b0360039290921b91821b19163390911b179055565b600c54600160401b8110156113e7578561134f8260016113739401600c55600c611895565b81546001600160a01b0393841660039290921b91821b9390911b1916919091179055565b600d54335f52600960205260405f20845f5260205260405f2055335f52600860205260405f20835f5260205260405f20600160ff198254161790556113b9600d54611c48565b600d5582337f84c2017c05ba130d33f72a8ce63652dac134bccdd109370807dcc927d4ba47425f80a36111b8565b634e487b7160e01b5f52604160045260245ffd5b015190508e806110c5565b90601f19831691865f52815f20925f5b81811061145557509160019391856002989796941061143d575b505050811b01845561118e565b01515f1960f88460031b161c191690558d8080611430565b92936020600181928786015181550195019301611416565b90601f19831691845f52815f20925f5b8181106114bc5750916001939185600798979694106114a4575b505050811b0190556110dc565b01515f1960f88460031b161c191690558d8080611497565b9293602060018192878601518155019501930161147d565b631fbbed9560e01b5f5260045ffd5b63790a03c760e11b5f5260045ffd5b9650503d805f883e6115048188611919565b8601610140878203126101d85786516001600160a01b038116036101d85760208701516001600160401b0381116101d85781611541918901611abc565b5060408701516001600160401b0381116101d85781611561918901611abc565b5060608701516001600160401b0381116101d85781611581918901611abc565b5060808701519660a08101516001600160401b0381116101d857826115a7918301611abc565b5060c08101516001600160401b0381116101d857826115c7918301611abc565b5060e08101516001600160401b0381116101d857610100926115ea918301611abc565b5001519586151587036101d8579587610fae565b6040513d5f823e3d90fd5b346101d85760403660031901126101d857611622611825565b61162a61183b565b6001600160a01b039182165f908152600660209081526040808320949093168252928352819020549051908152f35b346101d85760203660031901126101d8576004355f52600260205260405f208054906116f160018060a01b036001830154169160018060a01b03600282015416600382015460048301549060058401549260ff60076116ba6006880161193a565b9601541696604051988952602089015260408801526060870152608086015260a085015261010060c08501526101008401906119da565b600382101561079057829160e08301520390f35b346101d85760403660031901126101d85761171e611825565b61172661183b565b9060018060a01b03165f52600860205260405f209060018060a01b03165f52602052602060ff60405f2054166040519015158152f35b346101d85760403660031901126101d857611775611825565b61177d61183b565b6001600160a01b039182165f908152600960209081526040808320949093168252928352819020549051908152f35b346101d85760203660031901126101d857600435600c548110156101d857610205602091611851565b346101d85760403660031901126101d8576117ee611825565b6117f661183b565b6001600160a01b039182165f908152600560209081526040808320949093168252928352819020549051908152f35b600435906001600160a01b03821682036101d857565b602435906001600160a01b03821682036101d857565b600c5481101561186957600c5f5260205f2001905f90565b634e487b7160e01b5f52603260045260245ffd5b600b5481101561186957600b5f5260205f2001905f90565b8054821015611869575f5260205f2001905f90565b90600182811c921680156118d8575b60208310146118c457565b634e487b7160e01b5f52602260045260245ffd5b91607f16916118b9565b61010081019081106001600160401b038211176113e757604052565b604081019081106001600160401b038211176113e757604052565b90601f801991011681019081106001600160401b038211176113e757604052565b9060405191825f82549261194d846118aa565b80845293600181169081156119b85750600114611974575b5061197292500383611919565b565b90505f9291925260205f20905f915b81831061199c575050906020611972928201015f611965565b6020919350806001915483858901015201910190918492611983565b90506020925061197294915060ff191682840152151560051b8201015f611965565b805180835260209291819084018484015e5f828201840152601f01601f1916010190565b6001600160401b0381116113e757601f01601f191660200190565b929192611a25826119fe565b91611a336040519384611919565b8294818452818301116101d8578281602093845f960137010152565b9080601f830112156101d857816020611a6a93359101611a19565b90565b9060206003198301126101d8576004356001600160401b0381116101d857826023820112156101d8578060040135926001600160401b0384116101d857602484830101116101d8576024019190565b81601f820112156101d857805190611ad3826119fe565b92611ae16040519485611919565b828452602083830101116101d857815f9260208093018386015e8301015290565b60038210156107905752565b601f8211611b1b57505050565b5f5260205f20906020601f840160051c83019310611b53575b601f0160051c01905b818110611b48575050565b5f8155600101611b3d565b9091508190611b34565b9190820391821161074f57565b8181029291811591840414171561074f57565b6001600160401b0381116113e75760051b60200190565b9080601f830112156101d857813590611bac82611b7d565b92611bba6040519485611919565b82845260208085019360051b8201019182116101d857602001915b818310611be25750505090565b82356001600160a01b03811681036101d857815260209283019201611bd5565b80518210156118695760209160051b010190565b90611c2082611b7d565b611c2d6040519182611919565b8281528092611c3e601f1991611b7d565b0190602036910137565b5f19811461074f5760010190565b90602080835192838152019201905f5b818110611c735750505090565b82516001600160a01b0316845260209384019390920191600101611c66565b60025f5414611ca15760025f55565b633ee5aeb560e01b5f5260045ffd5b3d15611cda573d90611cc1826119fe565b91611ccf6040519384611919565b82523d5f602084013e565b606090565b9060405192611ced846118fe565b5f845260208401925f84528015611e4f57600781029080820460070361074f576064611d1d920490818752611b5d565b8352835180611ddb575b508251611d35575b50505090565b6001600160a01b038216918215611dcc575f808080938751905af1611d58611cb0565b5015611dbd578251825f52600460205260405f20805491820180921161074f57556001600160a01b0316918215611d2f5760207f475b66d7885628b7748e4e1e172bbf118fa0cbf1fc720269dab92800543247399151604051908152a35f8080611d2f565b636178540d60e11b5f5260045ffd5b63adb2fcbd60e01b5f5260045ffd5b600f545f918291829182916001600160a01b03165af1611df9611cb0565b5015611e40577fcbf027055b1f8fe76f3932b7304397f7b2a12990470b8a3abe205e38e5b780fc6040855160018060a01b03600f541682519182526020820152a15f611d27565b634033e4e360e01b5f5260045ffd5b63e5baf2c160e01b5f5260045ffd5b60405191611e6b836118fe565b5f8352602083015f81528215611e4f578290525f83525f80808085855af1611e91611cb0565b5015611ed0576040519182526001600160a01b0316907fe309aa15fd2f6bd8a58603632508694071e7d35e967bdbb827926e429b7ef34d90602090a290565b63cbe4e8c360e01b5f5260045ffd5b6001546001600160a01b03163303611ef357565b63118cdaa760e01b5f523360045260245ffd5b60018060a01b031690815f52600860205260405f2060018060a01b0382165f5260205260ff60405f205416611f39575050565b5f8281526009602090815260408083206001600160a01b0385168452909152902054600d545f19810190811161074f57808203612055575b5050600b548015612041575f1901611fa2611f8d82600b611895565b81549060018060a01b039060031b1b19169055565b600b55600c548015612041575f1901611fbf611f8d82600c611895565b600c555f8281526009602090815260408083206001600160a01b038516808552908352818420849055858452600883528184209084529091529020805460ff19169055600d54801561074f575f1901600d556001600160a01b0316907ffaffa33af863c5ae158ba7fa4eae9706e60d2ef054aa513d867c3e2d4b1a4fd55f80a3565b634e487b7160e01b5f52603160045260245ffd5b6120796120618261187d565b905460039190911b1c6001600160a01b031691611851565b905460039190911b1c6001600160a01b0316906120998161134f8561187d565b6120a68261134f85611851565b5f52600960205260405f209060018060a01b03165f5260205260405f20555f80611f7156fea2646970667358221220ec2fa917e11cbbff3237046f1c24b3e9af39dd85e5cb8467c414f58393647c1864736f6c634300081d0033",
    "sourcePath": "p:/bsc/rabita-club/node/contracts/MessagingService.sol",
    "compiler": {
        "name": "solc",
        "version": "0.8.29+commit.ab55807c"
    },
    "functionHashes": {
        "MAX_BATCH_SIZE()": "cfdbf254",
        "MESSAGE_EXPIRATION()": "d8e80775",
        "PLATFORM_FEE_PERCENT()": "560d52d4",
        "activeKols(uint256)": "0640469d",
        "activePairCount()": "2fd16b8a",
        "activePairIndex(address,address)": "06fb3f49",
        "activeSenders(uint256)": "f0a696f7",
        "checkUpkeep(bytes)": "6e04ff0d",
        "devAddress()": "3ad10ef6",
        "getActivePairCount()": "f0149efd",
        "isActivePair(address,address)": "07bcddd2",
        "kolEarnedFees(address)": "82ab0658",
        "kolRegistry()": "589cbafc",
        "kolToUserLastReply(address,address)": "349b457a",
        "messageCount()": "3dbcc8d1",
        "messageMetadata(uint256)": "b32d3ea7",
        "messages(uint256)": "0d80fefd",
        "owner()": "8da5cb5b",
        "performUpkeep(bytes)": "4585e33b",
        "renounceOwnership()": "715018a6",
        "respondToMessage(address,string)": "d2259771",
        "sendEncryptedMessage(address,bytes,uint256,string)": "1fc6ac86",
        "setTimeoutRefundPercent(uint256)": "c1dfa080",
        "timeoutRefundPercent()": "c78c7a54",
        "transferOwnership(address)": "f2fde38b",
        "triggerTimeout(address,address)": "a54594a4",
        "userToKolFeesCollected(address,address)": "01c17c49",
        "userToKolLatestMessage(address,address)": "16e19601"
    },
    "gasEstimates": {
        "creation": {
            "codeDepositCost": "1689800",
            "executionCost": "infinite",
            "totalCost": "infinite"
        },
        "external": {
            "MAX_BATCH_SIZE()": "629",
            "MESSAGE_EXPIRATION()": "673",
            "PLATFORM_FEE_PERCENT()": "409",
            "activeKols(uint256)": "6647",
            "activePairCount()": "2402",
            "activePairIndex(address,address)": "2609",
            "activeSenders(uint256)": "7197",
            "checkUpkeep(bytes)": "infinite",
            "devAddress()": "2470",
            "getActivePairCount()": "2798",
            "isActivePair(address,address)": "2631",
            "kolEarnedFees(address)": "2750",
            "kolRegistry()": "2558",
            "kolToUserLastReply(address,address)": "2741",
            "messageCount()": "2468",
            "messageMetadata(uint256)": "infinite",
            "messages(uint256)": "infinite",
            "owner()": "2646",
            "performUpkeep(bytes)": "infinite",
            "renounceOwnership()": "28382",
            "respondToMessage(address,string)": "infinite",
            "sendEncryptedMessage(address,bytes,uint256,string)": "infinite",
            "setTimeoutRefundPercent(uint256)": "28272",
            "timeoutRefundPercent()": "2710",
            "transferOwnership(address)": "28753",
            "triggerTimeout(address,address)": "infinite",
            "userToKolFeesCollected(address,address)": "2565",
            "userToKolLatestMessage(address,address)": "2675"
        },
        "internal": {
            "_addActivePair(address,address)": "infinite",
            "_calculateRespondPayout(uint256)": "infinite",
            "_calculateTimeoutPayout(uint256)": "infinite",
            "_processPayout(uint256,address,address,bool)": "infinite",
            "_removeActivePair(address,address)": "infinite"
        }
    }
}